{
  "_format": "hh-sol-artifact-1",
  "contractName": "BikeRentalContract",
  "sourceName": "contracts/BikeRentalContract.sol",
  "abi": [
    {
      "inputs": [],
      "stateMutability": "nonpayable",
      "type": "constructor"
    },
    {
      "anonymous": false,
      "inputs": [
        {
          "indexed": true,
          "internalType": "address",
          "name": "walletAddress",
          "type": "address"
        },
        {
          "indexed": false,
          "internalType": "string",
          "name": "firstName",
          "type": "string"
        },
        {
          "indexed": false,
          "internalType": "string",
          "name": "lastName",
          "type": "string"
        }
      ],
      "name": "AddRenter",
      "type": "event"
    },
    {
      "inputs": [],
      "name": "Deposit",
      "outputs": [],
      "stateMutability": "payable",
      "type": "function"
    },
    {
      "inputs": [],
      "name": "MakePayment",
      "outputs": [],
      "stateMutability": "payable",
      "type": "function"
    },
    {
      "inputs": [
        {
          "internalType": "string",
          "name": "firstName",
          "type": "string"
        },
        {
          "internalType": "string",
          "name": "lastName",
          "type": "string"
        }
      ],
      "name": "addRenter",
      "outputs": [],
      "stateMutability": "nonpayable",
      "type": "function"
    },
    {
      "inputs": [],
      "name": "balanceOf",
      "outputs": [
        {
          "internalType": "uint256",
          "name": "",
          "type": "uint256"
        }
      ],
      "stateMutability": "view",
      "type": "function"
    },
    {
      "inputs": [],
      "name": "balanceOfRenter",
      "outputs": [
        {
          "internalType": "uint256",
          "name": "",
          "type": "uint256"
        }
      ],
      "stateMutability": "view",
      "type": "function"
    },
    {
      "inputs": [],
      "name": "canRentBike",
      "outputs": [
        {
          "internalType": "bool",
          "name": "",
          "type": "bool"
        }
      ],
      "stateMutability": "view",
      "type": "function"
    },
    {
      "inputs": [],
      "name": "checkIn",
      "outputs": [],
      "stateMutability": "nonpayable",
      "type": "function"
    },
    {
      "inputs": [],
      "name": "checkOut",
      "outputs": [],
      "stateMutability": "nonpayable",
      "type": "function"
    },
    {
      "inputs": [],
      "name": "getRenter",
      "outputs": [
        {
          "components": [
            {
              "internalType": "string",
              "name": "firstName",
              "type": "string"
            },
            {
              "internalType": "string",
              "name": "lastName",
              "type": "string"
            },
            {
              "internalType": "bool",
              "name": "canRent",
              "type": "bool"
            },
            {
              "internalType": "bool",
              "name": "active",
              "type": "bool"
            },
            {
              "internalType": "uint256",
              "name": "balance",
              "type": "uint256"
            },
            {
              "internalType": "uint256",
              "name": "due",
              "type": "uint256"
            },
            {
              "internalType": "uint256",
              "name": "start",
              "type": "uint256"
            },
            {
              "internalType": "uint256",
              "name": "end",
              "type": "uint256"
            },
            {
              "internalType": "uint256",
              "name": "duration",
              "type": "uint256"
            }
          ],
          "internalType": "struct BikeRentalContract.Renter",
          "name": "",
          "type": "tuple"
        }
      ],
      "stateMutability": "view",
      "type": "function"
    },
    {
      "inputs": [],
      "name": "getTotalDuration",
      "outputs": [
        {
          "internalType": "uint256",
          "name": "",
          "type": "uint256"
        }
      ],
      "stateMutability": "nonpayable",
      "type": "function"
    },
    {
      "inputs": [],
      "name": "owner",
      "outputs": [
        {
          "internalType": "address",
          "name": "",
          "type": "address"
        }
      ],
      "stateMutability": "view",
      "type": "function"
    },
    {
      "inputs": [
        {
          "internalType": "address",
          "name": "",
          "type": "address"
        }
      ],
      "name": "renters",
      "outputs": [
        {
          "internalType": "string",
          "name": "firstName",
          "type": "string"
        },
        {
          "internalType": "string",
          "name": "lastName",
          "type": "string"
        },
        {
          "internalType": "bool",
          "name": "canRent",
          "type": "bool"
        },
        {
          "internalType": "bool",
          "name": "active",
          "type": "bool"
        },
        {
          "internalType": "uint256",
          "name": "balance",
          "type": "uint256"
        },
        {
          "internalType": "uint256",
          "name": "due",
          "type": "uint256"
        },
        {
          "internalType": "uint256",
          "name": "start",
          "type": "uint256"
        },
        {
          "internalType": "uint256",
          "name": "end",
          "type": "uint256"
        },
        {
          "internalType": "uint256",
          "name": "duration",
          "type": "uint256"
        }
      ],
      "stateMutability": "view",
      "type": "function"
    }
  ],
  "bytecode": "0x608060405234801561001057600080fd5b50336000806101000a81548173ffffffffffffffffffffffffffffffffffffffff021916908373ffffffffffffffffffffffffffffffffffffffff160217905550612111806100606000396000f3fe6080604052600436106100a75760003560e01c80637f6ae770116100645780637f6ae770146101935780638da5cb5b146101be578063a0101aba146101e9578063cba5751c14610212578063d9a3f52514610229578063ed21248c14610254576100a7565b8063183ff085146100ac57806346f3d313146100c3578063595089ae146100ee578063644a1370146100f8578063722713f71461013d5780637663872a14610168575b600080fd5b3480156100b857600080fd5b506100c161025e565b005b3480156100cf57600080fd5b506100d8610403565b6040516100e59190611497565b60405180910390f35b6100f6610610565b005b34801561010457600080fd5b5061011f600480360381019061011a9190611524565b6109f6565b604051610134999897969594939291906115fc565b60405180910390f35b34801561014957600080fd5b50610152610b6e565b60405161015f9190611497565b60405180910390f35b34801561017457600080fd5b5061017d610b76565b60405161018a9190611697565b60405180910390f35b34801561019f57600080fd5b506101a8610bee565b6040516101b591906117e6565b60405180910390f35b3480156101ca57600080fd5b506101d3610df3565b6040516101e09190611817565b60405180910390f35b3480156101f557600080fd5b50610210600480360381019061020b9190611967565b610e17565b005b34801561021e57600080fd5b50610227610fd8565b005b34801561023557600080fd5b5061023e611296565b60405161024b9190611497565b60405180910390f35b61025c611301565b005b60011515600160008060009054906101000a900473ffffffffffffffffffffffffffffffffffffffff1673ffffffffffffffffffffffffffffffffffffffff1673ffffffffffffffffffffffffffffffffffffffff16815260200190815260200160002060020160019054906101000a900460ff16151514610315576040517f08c379a000000000000000000000000000000000000000000000000000000000815260040161030c90611a2b565b60405180910390fd5b6000600160008060009054906101000a900473ffffffffffffffffffffffffffffffffffffffff1673ffffffffffffffffffffffffffffffffffffffff1673ffffffffffffffffffffffffffffffffffffffff16815260200190815260200160002060020160016101000a81548160ff02191690831515021790555042600160008060009054906101000a900473ffffffffffffffffffffffffffffffffffffffff1673ffffffffffffffffffffffffffffffffffffffff1673ffffffffffffffffffffffffffffffffffffffff1681526020019081526020016000206006018190555061040161137d565b565b6000801515600160008060009054906101000a900473ffffffffffffffffffffffffffffffffffffffff1673ffffffffffffffffffffffffffffffffffffffff1673ffffffffffffffffffffffffffffffffffffffff16815260200190815260200160002060020160019054906101000a900460ff161515146104bb576040517f08c379a00000000000000000000000000000000000000000000000000000000081526004016104b290611a97565b60405180910390fd5b600061058d600160008060009054906101000a900473ffffffffffffffffffffffffffffffffffffffff1673ffffffffffffffffffffffffffffffffffffffff1673ffffffffffffffffffffffffffffffffffffffff16815260200190815260200160002060050154600160008060009054906101000a900473ffffffffffffffffffffffffffffffffffffffff1673ffffffffffffffffffffffffffffffffffffffff1673ffffffffffffffffffffffffffffffffffffffff16815260200190815260200160002060060154611418565b90506000603c8261059e9190611b15565b905080600160008060009054906101000a900473ffffffffffffffffffffffffffffffffffffffff1673ffffffffffffffffffffffffffffffffffffffff1673ffffffffffffffffffffffffffffffffffffffff16815260200190815260200160002060070181905550809250505090565b6000600160008060009054906101000a900473ffffffffffffffffffffffffffffffffffffffff1673ffffffffffffffffffffffffffffffffffffffff1673ffffffffffffffffffffffffffffffffffffffff16815260200190815260200160002060040154116106b6576040517f08c379a00000000000000000000000000000000000000000000000000000000081526004016106ad90611bb8565b60405180910390fd5b34600160008060009054906101000a900473ffffffffffffffffffffffffffffffffffffffff1673ffffffffffffffffffffffffffffffffffffffff1673ffffffffffffffffffffffffffffffffffffffff168152602001908152602001600020600301541161075b576040517f08c379a000000000000000000000000000000000000000000000000000000000815260040161075290611c24565b60405180910390fd5b34600160008060009054906101000a900473ffffffffffffffffffffffffffffffffffffffff1673ffffffffffffffffffffffffffffffffffffffff1673ffffffffffffffffffffffffffffffffffffffff16815260200190815260200160002060030160008282546107ce9190611c44565b9250508190555060018060008060009054906101000a900473ffffffffffffffffffffffffffffffffffffffff1673ffffffffffffffffffffffffffffffffffffffff1673ffffffffffffffffffffffffffffffffffffffff16815260200190815260200160002060020160006101000a81548160ff0219169083151502179055506000600160008060009054906101000a900473ffffffffffffffffffffffffffffffffffffffff1673ffffffffffffffffffffffffffffffffffffffff1673ffffffffffffffffffffffffffffffffffffffff168152602001908152602001600020600401819055506000600160008060009054906101000a900473ffffffffffffffffffffffffffffffffffffffff1673ffffffffffffffffffffffffffffffffffffffff1673ffffffffffffffffffffffffffffffffffffffff168152602001908152602001600020600501819055506000600160008060009054906101000a900473ffffffffffffffffffffffffffffffffffffffff1673ffffffffffffffffffffffffffffffffffffffff1673ffffffffffffffffffffffffffffffffffffffff168152602001908152602001600020600601819055506000600160008060009054906101000a900473ffffffffffffffffffffffffffffffffffffffff1673ffffffffffffffffffffffffffffffffffffffff1673ffffffffffffffffffffffffffffffffffffffff16815260200190815260200160002060070181905550565b6001602052806000526040600020600091509050806000018054610a1990611ca7565b80601f0160208091040260200160405190810160405280929190818152602001828054610a4590611ca7565b8015610a925780601f10610a6757610100808354040283529160200191610a92565b820191906000526020600020905b815481529060010190602001808311610a7557829003601f168201915b505050505090806001018054610aa790611ca7565b80601f0160208091040260200160405190810160405280929190818152602001828054610ad390611ca7565b8015610b205780601f10610af557610100808354040283529160200191610b20565b820191906000526020600020905b815481529060010190602001808311610b0357829003601f168201915b5050505050908060020160009054906101000a900460ff16908060020160019054906101000a900460ff16908060030154908060040154908060050154908060060154908060070154905089565b600047905090565b6000600160008060009054906101000a900473ffffffffffffffffffffffffffffffffffffffff1673ffffffffffffffffffffffffffffffffffffffff1673ffffffffffffffffffffffffffffffffffffffff16815260200190815260200160002060020160009054906101000a900460ff16905090565b610bf661142e565b600160008060009054906101000a900473ffffffffffffffffffffffffffffffffffffffff1673ffffffffffffffffffffffffffffffffffffffff1673ffffffffffffffffffffffffffffffffffffffff16815260200190815260200160002060405180610120016040529081600082018054610c7290611ca7565b80601f0160208091040260200160405190810160405280929190818152602001828054610c9e90611ca7565b8015610ceb5780601f10610cc057610100808354040283529160200191610ceb565b820191906000526020600020905b815481529060010190602001808311610cce57829003601f168201915b50505050508152602001600182018054610d0490611ca7565b80601f0160208091040260200160405190810160405280929190818152602001828054610d3090611ca7565b8015610d7d5780601f10610d5257610100808354040283529160200191610d7d565b820191906000526020600020905b815481529060010190602001808311610d6057829003601f168201915b505050505081526020016002820160009054906101000a900460ff161515151581526020016002820160019054906101000a900460ff1615151515815260200160038201548152602001600482015481526020016005820154815260200160068201548152602001600782015481525050905090565b60008054906101000a900473ffffffffffffffffffffffffffffffffffffffff1681565b604051806101200160405280838152602001828152602001600115158152602001600015158152602001600081526020016000815260200160008152602001600081526020016000815250600160008060009054906101000a900473ffffffffffffffffffffffffffffffffffffffff1673ffffffffffffffffffffffffffffffffffffffff1673ffffffffffffffffffffffffffffffffffffffff1681526020019081526020016000206000820151816000019081610ed79190611e84565b506020820151816001019081610eed9190611e84565b5060408201518160020160006101000a81548160ff02191690831515021790555060608201518160020160016101000a81548160ff0219169083151502179055506080820151816003015560a0820151816004015560c0820151816005015560e08201518160060155610100820151816007015590505060008054906101000a900473ffffffffffffffffffffffffffffffffffffffff1673ffffffffffffffffffffffffffffffffffffffff167f17639b918076415db0ec61e97e8569b80e98326f03a15f46ac38d157c8396a268383604051610fcc929190611f56565b60405180910390a25050565b6000600160008060009054906101000a900473ffffffffffffffffffffffffffffffffffffffff1673ffffffffffffffffffffffffffffffffffffffff1673ffffffffffffffffffffffffffffffffffffffff168152602001908152602001600020600401541461107e576040517f08c379a000000000000000000000000000000000000000000000000000000000815260040161107590611fd9565b60405180910390fd5b60011515600160008060009054906101000a900473ffffffffffffffffffffffffffffffffffffffff1673ffffffffffffffffffffffffffffffffffffffff1673ffffffffffffffffffffffffffffffffffffffff16815260200190815260200160002060020160009054906101000a900460ff16151514611135576040517f08c379a000000000000000000000000000000000000000000000000000000000815260040161112c90612045565b60405180910390fd5b60018060008060009054906101000a900473ffffffffffffffffffffffffffffffffffffffff1673ffffffffffffffffffffffffffffffffffffffff1673ffffffffffffffffffffffffffffffffffffffff16815260200190815260200160002060020160016101000a81548160ff02191690831515021790555042600160008060009054906101000a900473ffffffffffffffffffffffffffffffffffffffff1673ffffffffffffffffffffffffffffffffffffffff1673ffffffffffffffffffffffffffffffffffffffff168152602001908152602001600020600501819055506000600160008060009054906101000a900473ffffffffffffffffffffffffffffffffffffffff1673ffffffffffffffffffffffffffffffffffffffff1673ffffffffffffffffffffffffffffffffffffffff16815260200190815260200160002060020160006101000a81548160ff021916908315150217905550565b6000600160008060009054906101000a900473ffffffffffffffffffffffffffffffffffffffff1673ffffffffffffffffffffffffffffffffffffffff1673ffffffffffffffffffffffffffffffffffffffff16815260200190815260200160002060030154905090565b34600160008060009054906101000a900473ffffffffffffffffffffffffffffffffffffffff1673ffffffffffffffffffffffffffffffffffffffff1673ffffffffffffffffffffffffffffffffffffffff16815260200190815260200160002060030160008282546113749190612065565b92505081905550565b6000611387610403565b905060006005826113989190611b15565b90506611c37937e08000816113ad9190612099565b600160008060009054906101000a900473ffffffffffffffffffffffffffffffffffffffff1673ffffffffffffffffffffffffffffffffffffffff1673ffffffffffffffffffffffffffffffffffffffff168152602001908152602001600020600401819055505050565b600082826114269190611c44565b905092915050565b604051806101200160405280606081526020016060815260200160001515815260200160001515815260200160008152602001600081526020016000815260200160008152602001600081525090565b6000819050919050565b6114918161147e565b82525050565b60006020820190506114ac6000830184611488565b92915050565b6000604051905090565b600080fd5b600080fd5b600073ffffffffffffffffffffffffffffffffffffffff82169050919050565b60006114f1826114c6565b9050919050565b611501816114e6565b811461150c57600080fd5b50565b60008135905061151e816114f8565b92915050565b60006020828403121561153a576115396114bc565b5b60006115488482850161150f565b91505092915050565b600081519050919050565b600082825260208201905092915050565b60005b8381101561158b578082015181840152602081019050611570565b60008484015250505050565b6000601f19601f8301169050919050565b60006115b382611551565b6115bd818561155c565b93506115cd81856020860161156d565b6115d681611597565b840191505092915050565b60008115159050919050565b6115f6816115e1565b82525050565b6000610120820190508181036000830152611617818c6115a8565b9050818103602083015261162b818b6115a8565b905061163a604083018a6115ed565b61164760608301896115ed565b6116546080830188611488565b61166160a0830187611488565b61166e60c0830186611488565b61167b60e0830185611488565b611689610100830184611488565b9a9950505050505050505050565b60006020820190506116ac60008301846115ed565b92915050565b600082825260208201905092915050565b60006116ce82611551565b6116d881856116b2565b93506116e881856020860161156d565b6116f181611597565b840191505092915050565b611705816115e1565b82525050565b6117148161147e565b82525050565b600061012083016000830151848203600086015261173882826116c3565b9150506020830151848203602086015261175282826116c3565b915050604083015161176760408601826116fc565b50606083015161177a60608601826116fc565b50608083015161178d608086018261170b565b5060a08301516117a060a086018261170b565b5060c08301516117b360c086018261170b565b5060e08301516117c660e086018261170b565b506101008301516117db61010086018261170b565b508091505092915050565b60006020820190508181036000830152611800818461171a565b905092915050565b611811816114e6565b82525050565b600060208201905061182c6000830184611808565b92915050565b600080fd5b600080fd5b7f4e487b7100000000000000000000000000000000000000000000000000000000600052604160045260246000fd5b61187482611597565b810181811067ffffffffffffffff821117156118935761189261183c565b5b80604052505050565b60006118a66114b2565b90506118b2828261186b565b919050565b600067ffffffffffffffff8211156118d2576118d161183c565b5b6118db82611597565b9050602081019050919050565b82818337600083830152505050565b600061190a611905846118b7565b61189c565b90508281526020810184848401111561192657611925611837565b5b6119318482856118e8565b509392505050565b600082601f83011261194e5761194d611832565b5b813561195e8482602086016118f7565b91505092915050565b6000806040838503121561197e5761197d6114bc565b5b600083013567ffffffffffffffff81111561199c5761199b6114c1565b5b6119a885828601611939565b925050602083013567ffffffffffffffff8111156119c9576119c86114c1565b5b6119d585828601611939565b9150509250929050565b7f596f75206861766520746f20636865636b6f7574206669727374000000000000600082015250565b6000611a15601a8361155c565b9150611a20826119df565b602082019050919050565b60006020820190508181036000830152611a4481611a08565b9050919050565b7f42696b652069732063757272656e746c7920636865636b6564204f7574000000600082015250565b6000611a81601d8361155c565b9150611a8c82611a4b565b602082019050919050565b60006020820190508181036000830152611ab081611a74565b9050919050565b7f4e487b7100000000000000000000000000000000000000000000000000000000600052601260045260246000fd5b7f4e487b7100000000000000000000000000000000000000000000000000000000600052601160045260246000fd5b6000611b208261147e565b9150611b2b8361147e565b925082611b3b57611b3a611ab7565b5b828204905092915050565b7f596f7520646f206e6f74206861766520616e797468696e67206475652072696760008201527f6874206e6f770000000000000000000000000000000000000000000000000000602082015250565b6000611ba260268361155c565b9150611bad82611b46565b604082019050919050565b60006020820190508181036000830152611bd181611b95565b9050919050565b7f596f7520646f206e6f74206861766520656e6f7567682066756e640000000000600082015250565b6000611c0e601b8361155c565b9150611c1982611bd8565b602082019050919050565b60006020820190508181036000830152611c3d81611c01565b9050919050565b6000611c4f8261147e565b9150611c5a8361147e565b9250828203905081811115611c7257611c71611ae6565b5b92915050565b7f4e487b7100000000000000000000000000000000000000000000000000000000600052602260045260246000fd5b60006002820490506001821680611cbf57607f821691505b602082108103611cd257611cd1611c78565b5b50919050565b60008190508160005260206000209050919050565b60006020601f8301049050919050565b600082821b905092915050565b600060088302611d3a7fffffffffffffffffffffffffffffffffffffffffffffffffffffffffffffffff82611cfd565b611d448683611cfd565b95508019841693508086168417925050509392505050565b6000819050919050565b6000611d81611d7c611d778461147e565b611d5c565b61147e565b9050919050565b6000819050919050565b611d9b83611d66565b611daf611da782611d88565b848454611d0a565b825550505050565b600090565b611dc4611db7565b611dcf818484611d92565b505050565b5b81811015611df357611de8600082611dbc565b600181019050611dd5565b5050565b601f821115611e3857611e0981611cd8565b611e1284611ced565b81016020851015611e21578190505b611e35611e2d85611ced565b830182611dd4565b50505b505050565b600082821c905092915050565b6000611e5b60001984600802611e3d565b1980831691505092915050565b6000611e748383611e4a565b9150826002028217905092915050565b611e8d82611551565b67ffffffffffffffff811115611ea657611ea561183c565b5b611eb08254611ca7565b611ebb828285611df7565b600060209050601f831160018114611eee5760008415611edc578287015190505b611ee68582611e68565b865550611f4e565b601f198416611efc86611cd8565b60005b82811015611f2457848901518255600182019150602085019450602081019050611eff565b86831015611f415784890151611f3d601f891682611e4a565b8355505b6001600288020188555050505b505050505050565b60006040820190508181036000830152611f7081856115a8565b90508181036020830152611f8481846115a8565b90509392505050565b7f596f75206861766520612070656e64696e672062616c616e6365000000000000600082015250565b6000611fc3601a8361155c565b9150611fce82611f8d565b602082019050919050565b60006020820190508181036000830152611ff281611fb6565b9050919050565b7f596f752063616e6e6f742072656e7420617420746869732074696d6500000000600082015250565b600061202f601c8361155c565b915061203a82611ff9565b602082019050919050565b6000602082019050818103600083015261205e81612022565b9050919050565b60006120708261147e565b915061207b8361147e565b925082820190508082111561209357612092611ae6565b5b92915050565b60006120a48261147e565b91506120af8361147e565b92508282026120bd8161147e565b915082820484148315176120d4576120d3611ae6565b5b509291505056fea2646970667358221220b31832d89f7f0db4ecb21cb0078235202c616416fcfa8dced83c9032184b023c64736f6c63430008110033",
  "linkReferences": {},
  "deployedLinkReferences": {}
}